:020000040800F2
:10000000B0080020F51E0008CD1E0008CF1E000815
:10001000D11E0008D31E0008D51E000800000000F5
:10002000000000000000000000000000D71E0008D3
:10003000D91E000800000000DB1E0008DD1E0008BD
:100040001D1F0008211F0008251F0008291F000888
:100050002D1F0008311F0008351F0008391F000838
:100060003D1F0008411F0008451F0008491F0008E8
:100070004D1F0008511F0008551F0008591F000898
:100080005D1F0008611F0008651F0008691F000848
:100090006D1F0008711F0008751F0008791F0008F8
:1000A0007D1F0008811F0008851F0008891F0008A8
:1000B0008D1F0008911F0008951F0008991F000858
:1000C0009D1F0008A11F0008A51F0008A91F000808
:1000D000AD1F0008B11F0008B51F0008B91F0008B8
:1000E000BD1F0008C11F0008C51F0008C91F000868
:1000F000CD1F0008D11F0008D51F0008D91F000818
:10010000DD1F0008E11F0008E51F0008E91F0008C7
:10011000ED1F0008F11F0008F51F0008F91F000877
:10012000FD1F000801200008052000080920000824
:100130000D200008112000081520000819200008D3
:100140001D20000821200008252000082920000883
:100150002D20000831200008352000083920000833
:100160003D200008412000084520000849200008E3
:100170004D20000851200008552000085920000893
:100180005D20000861200008652000086920000843
:100190006D200008712000087520000879200008F3
:1001A0007D200008812000088520000889200008A3
:1001B0008D20000891200008952000089920000853
:1001C0009D200008A12000087CB50400012600F055
:1001D000FBFB0500002C01D101205AE0206A4028D9
:1001E00094F84000012801D1022052E0012084F857
:1001F000400094F8410000280AD1002084F8400013
:10020000200000F0E0FB41F28831200000F0B4FA59
:100210002068006830F4F850A168491E50EA0120B7
:1002200021680860A06C00902B0000222021200093
:1002300000F0A4FA0100C9B2002926D121680A6899
:1002400014490A40616852EA0162E1680A43E169BF
:100250000A43216A0A4321680A6021684A680E49F4
:100260000A40216952EA014261690A43A1690A43CD
:1002700021684A602168096851F001012268116013
:1002800000216164012184F84110002184F84010AC
:10029000C0B276BD2FFFFF00FEF8E0FF10B50400EE
:1002A000002C01D101201AE094F84000012801D16E
:1002B000022014E0012084F8400020680068400813
:1002C000400021680860200000F084FB002060648A
:1002D000002084F84100002084F84000002010BD78
:1002E0002DE9F84304000D0016005FF0010800F04E
:1002F0006BFB0700A8690028E8690028286A002825
:1003000094F84000012801D102203DE0012084F84A
:10031000400094F8410001282FD1002060640220A1
:1003200084F8410000963B0000222021200000F0CC
:1003300025FA81464846C0B2002820D10022290073
:10034000200000F044FA686A002812D100963B00B1
:1003500001220221200000F011FA81464846C0B275
:1003600000280CD102202168C860012084F84100D7
:1003700005E0012084F8410001E05FF0020900205F
:1003800084F840004846C0B2BDE8F2832DE9F84346
:1003900005000C001600002700F016FB80462868B8
:1003A00010F1200995F84000012801D102205EE0FB
:1003B000012085F8400095F84100012850D1002027
:1003C0006864002C45D0122085F841002868006937
:1003D000401CE86228680069401CA8626C622868BA
:1003E000406930F0406029684861E86A002815D00B
:1003F0000096434601220421280000F0BFF90700BF
:100400003800C0B2002809D1686A411C69620078CE
:1004100089F80000E86A401EE862E6E73800C0B2EA
:10042000002812D10096434601220221280000F044
:10043000A5F907003800C0B2002806D102202968BB
:10044000C860280000F04CF90700012085F8410041
:1004500008E0686C50F0080068640120070001E0C3
:1004600002200700002085F840003800C0B2BDE837
:10047000F2832DE9FC4705000C001600002700F070
:10048000A3FA80462868D0F81890286810F1200A4E
:1004900095F84000012801D1022063E0012085F891
:1004A000400095F84100012855D100206864002CD7
:1004B0004AD0222085F8410028680069401CA863C2
:1004C00028680069401C68632C632868406930F024
:1004D000406050F08060296848612868C0F8189032
:1004E000A86B002815D0009643460122062128005B
:1004F00000F044F907003800C0B2002809D1286B89
:10050000411C29639AF800100170A86B401EA86373
:10051000E6E73800C0B2002812D100964346012217
:100520000221280000F02AF907003800C0B2002894
:1005300006D102202968C860280000F0D1F8070021
:10054000012085F8410008E0686C50F008006864FC
:100550000120070001E002200700002085F840008C
:100560003800C0B2BDE8F6872DE9FC4704000D0055
:1005700016001F005FF0010800F026FA8146A86906
:100580000028E8690028286A002894F8400001281B
:1005900001D102204CE0012084F8400094F8410091
:1005A00001283ED100206064422084F84100009779
:1005B0004B4600222021200000F0E0F88246504601
:1005C000C0B200282FD13068216888627068216825
:1005D0004862B0682168C8622068016831F440014F
:1005E0003069014351F4800120680160F068A8621D
:1005F0005FF000622900200000F0E9F800974B4608
:1006000001220821200000F0B9F882465046C0B20D
:10061000002808D108202168C860012084F8410022
:1006200001E05FF0020A002084F840005046C0B2AA
:10063000BDE8F6872DE9F84304000D0016005FF0D1
:10064000010800F0C1F90700A8690028E86900283E
:10065000286A002894F84000012801D102203DE0DA
:10066000012084F8400094F8410001282FD1002097
:100670006064822084F84100A06C00903B0000225E
:100680002021200000F07AF881464846C0B20028B8
:100690001FD12068016831F00801706801432068AB
:1006A0000160706808280BD1306821680863102049
:1006B0002168C8602068006850F4801021680860D4
:1006C0005FF040622900200000F081F801E05FF057
:1006D0000209002084F840004846C0B2BDE8F28319
:1006E0007CB50400002500F06FF9060094F8410085
:1006F00080073ED5002084F840002068006840074D
:1007000011D52068006830F0040021680860E06BB3
:1007100000F07EF905002800C0B2002803D0606C0C
:1007200050F0040060642068006850F00200216806
:100730000860A06C0090330001220221200000F02C
:100740001DF805002800C0B200280BD10220216846
:10075000C860A06C0090330000222021200000F02F
:100760000DF805002800C0B2002802D1012084F84D
:1007700041002800C0B276BD816470472DE9F04188
:1007800005000E0090461F00069C286880683042D5
:1007900001D0012000E000204146C0B2C9B2884229
:1007A00012D014F1010FF0D0002C04D000F00CF99D
:1007B000C01B8442E9D2042085F84100686C50F0E7
:1007C00001006864012000E00020BDE8F08110B461
:1007D0004B6A002B06D0B2F1406F03D08B6A5B1ED0
:1007E000046823618B69002B79D00B6A002B3ED003
:1007F0008B680468E361CB69002B20D0CC6A0B6B5B
:100800001C434B6B1C434B6A1C434B6954EA8344A7
:100810000B691C430B6A1C43CB681C43CB691C430C
:100820008B691C430B681C43144303685C61B2F181
:10083000406F00F0C6804B680468A361C1E0CC6AD9
:100840000B6B1C434B6B1C434B6A1C434B6954EAB8
:1008500083440B691C430B6A1C43CB691C438B69A3
:100860001C430B681C43144303685C61A9E0CB691B
:10087000002B1ED0CC6A0B6B1C434B6B1C434B6A8A
:100880001C434B6954EA83440B6A1C43CB681C43EA
:10089000CB691C438B691C430B681C4314430368DE
:1008A0005C61B2F1406F00F08C804B680468A3611A
:1008B00087E0CC6A0B6B1C434B6B1C434B6A1C439D
:1008C0004B6954EA83440B6A1C43CB691C438B6914
:1008D0001C430B681C43144303685C6171E00B6AA2
:1008E000002B39D08B680468E361CB69002B1DD0E5
:1008F000CC6A0B6B1C434B6B1C434B6A1C434B6910
:1009000054EA83440B691C430B6A1C43CB681C43A9
:10091000CB691C438B691C43144303685C61B2F1CF
:10092000406F4ED04B680468A3614AE0CC6A0B6B01
:100930001C434B6B1C434B6A1C434B6954EA834476
:100940000B691C430B6A1C43CB691C438B691C431A
:10095000144303685C6134E0CB69002B1BD0CC6A84
:100960000B6B1C434B6B1C434B6A1C434B6954EA97
:1009700083440B6A1C43CB681C43CB691C438B69C3
:100980001C43144303685C61B2F1406F19D04B689B
:100990000468A36115E04B6A002B12D0CC6A0B6B84
:1009A0001C434B6B1C434B6A1C434B6954EA834406
:1009B0000B6A1C43CB691C438B691C4314430368BB
:1009C0005C6110BC7047704701480068704700BF09
:1009D000AC000020704730B4002513E050F8042B21
:1009E000D30744BFA9F101039A18091F042942F84B
:1009F000045BFAD213468C0744BF15809B1CC907C1
:100A000048BF1D7050F8041B0029E7D130BC704767
:100A100070B50400A56DFFF7D7FF060094F8350008
:100A2000022806D080206065002084F83400012070
:100A30003BE02068006830F01600216808602068FC
:100A4000406930F0800021684861206C002802D1A4
:100A5000A06C002805D02068006830F008002168EC
:100A6000086020680068400840002168086020682D
:100A70000068C0070ED5FFF7A7FF801B0628F6D336
:100A800020206065002084F83400032084F83500BD
:100A900003200AE03F21E06D8140A960002084F836
:100AA0003400012084F83500002070BD2DE9FC41A0
:100AB00004000026002C01D10120D8E12078C007D5
:100AC0006DD5DFF89405016811F00C01042909D0F7
:100AD000006810F00C0008280ED1DFF880050068CF
:100AE000400209D5DFF86C050068800357D56068BF
:100AF000002854D10120BAE16068B0F5803F06D1EA
:100B0000DFF85005016851F48031016026E060682B
:100B100000280AD1DFF83C05016831F4803101601A
:100B2000016831F48021016018E06068B0F5A02F01
:100B30000AD1DFF82005016851F4802101600168C5
:100B400051F48031016009E0DFF80805016831F4F3
:100B500080310160016831F4802101606068002803
:100B60000ED0FFF731FF0500DFF8E80400688003CE
:100B700015D4FFF729FF401B6528F5D3032076E144
:100B8000FFF722FF0500DFF8CC040068800306D5DC
:100B9000FFF71AFF401B6528F5D3032067E1207893
:100BA000800752D5DFF8B004016811F00C0F09D0AE
:100BB000006810F00C00082816D1DFF8A0040068C7
:100BC000400211D4DFF88C040168890704D5E1687C
:100BD000012901D001204AE1016831F0F8012269C0
:100BE00051EAC201016030E0E06800281AD0DFF865
:100BF0006474386850F001003860FFF7E5FE0500C6
:100C00003868800706D4FFF7DFFE401B0328F7D3C0
:100C100003202CE1386830F0F800216950EAC10067
:100C2000386012E0DFF82C74386840084000386003
:100C3000FFF7CAFE05003868800706D5FFF7C4FE37
:100C4000401B0328F7D3032011E12078000728D5A3
:100C50006069002812D0DFF80874386850F001008D
:100C60003860FFF7B1FE05003868800719D4FFF738
:100C7000ABFE401B0328F7D30320F8E0DFF8E07356
:100C80003868400840003860FFF79EFE050038686D
:100C9000800706D5FFF798FE401B0328F7D30320F3
:100CA000E5E02078400740F18780DFF8C0733868BE
:100CB000C0000AD4386850F080503860386810F0AE
:100CC00080500090009801200600DFF8A483D8F837
:100CD0000000C00513D4D8F8000050F48070C8F8A4
:100CE0000000FFF771FE0500D8F80000C00506D42B
:100CF000FFF76AFE401B6528F6D30320B7E0A06823
:100D0000012806D1DFF86C03016851F00101016090
:100D100025E0A06800280AD1DFF8580301684908D7
:100D200049000160016831F00401016017E0A0682A
:100D300005280AD1DFF83C03016851F00401016085
:100D4000016851F00101016009E0DFF82803016842
:100D5000490849000160016831F004010160A068A0
:100D6000002810D0FFF730FE0500DFF80803006808
:100D7000800719D4FFF728FE401B41F289318842D1
:100D8000F3D3032073E0FFF71FFE0500DFF8E40252
:100D90000068800708D5FFF717FE401B41F2893134
:100DA0008842F3D3032062E03000C0B2012803D1AF
:100DB000386830F080503860A069002856D0DFF8DD
:100DC0009802006810F00C0008284DD0A069022895
:100DD00037D1DFF88072386830F080703860FFF704
:100DE000F3FD80463868800107D5FFF7EDFDB0EBD5
:100DF00008000328F6D3032039E0E169206A0143A3
:100E0000606A51EA8011A06A4008401E51EA004120
:100E1000E06A51EA006151F00051DFF840020160E0
:100E2000386850F080703860FFF7CEFD05003868F4
:100E300080011BD4FFF7C8FD401B0328F7D3032014
:100E400015E0DFF81072386830F080703860FFF716
:100E5000BBFD05003868800108D5FFF7B5FD401BD4
:100E60000328F7D3032002E0012000E00020BDE8C2
:100E7000F6812DE9F04104000D000026002C01D17F
:100E800001209FE0DFF8F071386810F00F00A842F1
:100E90000BD238680009000128433860386810F028
:100EA0000F00A84201D001208CE02078800719D5DE
:100EB0002078400705D5DFF8A001016851F4E05122
:100EC00001602078000705D5DFF88C01016851F436
:100ED00060410160DFF880110A6832F0F002A0681A
:100EE00002430A602078C00737D56068012806D120
:100EF000DFF860010068800311D4012062E06068BF
:100F0000022806D1DFF84C010068800107D40120D7
:100F100058E050480068800701D4012052E0DFF813
:100F20003881D8F800108908890060680143C8F842
:100F30000010FFF749FD0600D8F8000010F00C0083
:100F40006168B0EB810F08D0FFF73EFD801B41F2D6
:100F500089318842F0D3032034E0386810F00F0064
:100F600085420BD238680009000128433860386890
:100F700010F00F00A84201D0012023E020784007A4
:100F800006D535490A6832F4E052E06802430A6047
:100F90002078000707D53048016831F460412269A4
:100FA00051EAC201016000F00FF834492A4A126880
:100FB000C2F30312895CC8402B4908600F2000F07F
:100FC00061F80020BDE8F0812DE9F0410024002502
:100FD000002600272048006810F00C00002804D0EC
:100FE000042804D0082804D031E01E4830E024480A
:100FF0002EE0DFF86880D8F8000010F03F00040011
:10100000D8F8000040020CD5D8F80000C0F38810D2
:101010001B49A1FB00012200002300F059F8050044
:101020000BE0D8F80000C0F388100E49A1FB0001C6
:101030002200002300F04CF80500D8F80000C0F3AF
:101040000140401C40000600B5FBF6F000E00548FA
:10105000BDE8F08100380240083802400438024000
:10106000743802400024F40004000020403802409C
:101070000070004070380240003C0240E41E00084E
:1010800040787D0110B504004FF47A700D4909785D
:10109000B0FBF1F00C490968B1FBF0F000F0B0F9D9
:1010A000002801D001200CE0102C09D200222100E0
:1010B0005FF0FF3000F08FF904480460002000E08A
:1010C000012010BD080000200400002000000020C6
:1010D000BBBBE1B1B2F5803F80F07E80022A1ED911
:1010E0008C46B1FBF2F102FB11C31B0443EA10432F
:1010F000B3FBF2FC02FB1C3380B240EA0343B3FBB8
:10110000F2F002FB103240EA0C4000237047022A42
:1011100005D98446B0FBF2F002FB10C270474AB119
:1011200005D100F0010249085FEA30007047002253
:101130000023704700F078B90B0002000021002066
:101140007047904271EB030CF6D3B3F5803F2FD27A
:10115000F0B5B3FA83F7B1FA81F4A7F10F0E3D1B96
:101160005340CEF1200602FA0EF2F3415340B5F19E
:101170000F0746D80F3C2C444140C4F12006A04044
:10118000F1414140B1FBF3F603FB1611A2FB06450A
:10119000001BA94102D2761E8018594180EA010243
:1011A00021FA0EF362FA0EF200215A403046F0BDE9
:1011B00030B4B1FBF3FC03FB1C11A2FB0C45001B7C
:1011C000A94103D2ACF1010C8018594130BC024650
:1011D0000B46604600217047B2F1807F65D3F0B5C1
:1011E000B2FA82F7B1FA81F4C7F10F063D1B22FA79
:1011F00006F307F1110EF24120355A40B5F10F0701
:10120000B8D94140C4F12006A040F1414140B1FBB2
:10121000F3FC03FB1C11A2FB0C45001BA94103D2EC
:10122000BCF1010C801859410F2F12D30F3FC90395
:1012300041EA5041B1FBF3F603FB1611A2FB064550
:10124000D4EBC030A94102D2761E8018594146EA3B
:10125000CC3C07B34140C7F12006B840F1414140C2
:10126000B1FBF3F603FB1611A2FB0645001BA941D7
:1012700002D2761E8018594180EA010221FA0EF34B
:10128000C7F1200462FA0EF20CFA07F05A402CFA69
:1012900004F13043F0BD80EA010221FA0EF300218F
:1012A00062FA0EF260465A40F0BD8C46B1FBF2F194
:1012B00002FB11C31B0243EA1063B3FBF2FC02FB07
:1012C0001C331B024CEA002043EA1063B3FBF2FC20
:1012D00002FB1C331B024CEA002043EA1063B3FB01
:1012E000F2FC02FB1C331B024CEA002043EA1063B1
:1012F000B3FBF2FC02FB1C324CEA002000237047D7
:1013000010B410F00703DFF8044122684FF6FF0124
:101310000A40DFF8FC1051EA03210A43226010BCA6
:101320007047DFF8E8000068C0F30220704710B48F
:10133000020052B2002A05D40A01364B040064B2FE
:101340001A5508E00A01344B040064B214F00F048B
:10135000234403F8042C10BC704770B4030013F04E
:101360000704D4F10700052801D3042001E0D4F1DB
:101370000700251D072D01D2002500E0E51E0126EE
:1013800016FA00F0401E0140A94016FA05F56D1E40
:101390002A401143080070BC704710B50400601E5D
:1013A000B0F1807F01D301200EE0601E1B49086070
:1013B0000F215FF0FF30FFF7BAFF002018490860E7
:1013C000072018490860002010BD10B50400200057
:1013D000FFF796FF10BD2DE9F04104000D00160047
:1013E0000027FFF79EFF8046320029004046FFF7A6
:1013F000B4FF0100200040B2FFF799FFBDE8F08183
:1014000010B504002000FFF7C8FF10BD0CED00E090
:101410000000FA0500E400E018ED00E014E000E050
:1014200018E000E010E000E07047000010B5CC4C80
:10143000CC4820602000FEF731FF002801D00120B9
:1014400055E000F095F9C8480021C1610021016212
:1014500000214162002141610021C162002101633C
:10146000002141634FF40051C160C0480021016177
:101470000121C160102181605FF480014161012080
:1014800060600420A0601020E0608020B0FA80F04E
:10149000401E20614FF4A06060610020A061002028
:1014A000E061002020622000FEF78EFE002801D0BF
:1014B00001201CE0200000F01BF8002801D00120D2
:1014C00015E0200000F0ACF8002801D001200EE06B
:1014D000200000F04DF8002801D0012007E0200096
:1014E00000F028F8002801D0012000E0002010BD05
:1014F00070B504009C4D4FF48070A8616620286090
:101500000020686241F28836320029002000FEF790
:10151000E7FE002801D001200BE09920286032006E
:1015200029002000FEF7DCFE002801D0012000E0A9
:10153000002070BD1CB504008B494FF440708861D9
:10154000EB2008604FF44060C8615FF04070486273
:101550000A20486100200190002000906A46200087
:10156000FFF768F8002801D0012000E0002016BD38
:1015700030B58FB004004FF4807007908520019043
:1015800000200890002009905FF080700A900020F1
:10159000069001200B9000200C9000200D90002060
:1015A0000E9041F288352A0001A92000FEF798FE2E
:1015B000002801D0012031E02A0069462000FEF712
:1015C00058FF002801D0012028E0200000F09EF8FC
:1015D000002801D0012021E0812001909DF8001019
:1015E00011F00F010A225FF07060B0FA80F08240C3
:1015F00011438DF800102A0001A92000FEF770FEAB
:10160000002801D0012009E02A0069462000FEF7E9
:10161000BDFE002801D0012000E000200FB030BD49
:10162000F0B595B004004FF4807007900020099049
:101630000020069000200C9000200D9000200E90BD
:1016400010201190002013905FF48000149065200A
:101650000190002008905FF080750A9501200B90A2
:101660003F4E41F288373A0001A93000FEF738FEBC
:10167000002801D0012047E03A0069463000FEF71B
:10168000F8FE002801D001203EE006200190002055
:101690000A903A0001A93000FEF722FE002801D08E
:1016A000012031E002200F900220109001201290C2
:1016B000052001900A953B000FAA01A93000FEF712
:1016C00053FF002801D001201EE06120019001207D
:1016D0000B909DF8000010F03F0050F040008DF896
:1016E00000003A0001A93000FEF7FAFD002801D001
:1016F000012009E03A0069463000FEF747FE002865
:1017000001D0012000E0002015B0F0BD70B504004C
:10171000154D4FF44070A8610620286000206862D3
:1017200041F28836320029002000FEF7D9FD00285A
:1017300001D0012013E00D4A022010600220506009
:10174000052028605FF040706862330029002000A7
:10175000FEF70AFF002801D0012000E0002070BD44
:101760000C000020001000A0580000209000002075
:1017700010B586B03648016851F00201016000687A
:1017800010F00200059005983248016851F00201FE
:101790000160016831F0020101602F48016851F0D9
:1017A00002010160016811F00201059105990168CB
:1017B00051F008010160016811F0080105910599D7
:1017C000016851F010010160006810F010000590F0
:1017D0000598402000900A200490022001900120EA
:1017E0000290022003901D4C6946200000F03CF856
:1017F00004200090092004900020029069462000F7
:1018000000F032F84FF40060009009200490144C6E
:101810006946200000F028F84FF48050009009201D
:1018200004906946200000F01FF804200090092071
:10183000049069460B4800F017F84FF400500090F0
:10184000092004906946200000F00EF806B010BD93
:101850003838024018380240303802400004024054
:10186000000C0240001002402DE9F8410022002344
:10187000002400260025102D80F00B81012717FA87
:1018800005F213000A681A4014009C4240F0FF80E1
:101890004A68022A02D04A68122A1FD12A00D208B6
:1018A00000EB8202D2F820C05FF00F0E15F00702A5
:1018B000D2B292001EFA02FE3CEA0E0CD1F810E001
:1018C00015F00702D2B292001EFA02FE5EEA0C0C7C
:1018D00066462A00D20800EB82021662D0F800C0E9
:1018E0005FF0030E2A00D2B252001EFA02F23CEA66
:1018F000020C91F8048018F003082A00D2B25200BA
:1019000018FA02F858EA0C0CC0F800C04A68012A1C
:1019100008D04A68022A05D04A68112A02D04A68CB
:10192000122A1BD186682A00D2B252001EFA02F295
:101930009643D1F80C802A00D2B2520018FA02F86D
:1019400058EA060686604268AF40BA434F68C7F35C
:101950000017AF403A439446C0F804C0C6682A0056
:10196000D2B252001EFA02FE36EA0E068F682A0034
:10197000D2B2520097403E43C6604A68D20040F15E
:101980008680DFF81421176857F4804717601268C3
:1019900012F480420092009ADFF800C12A009208F7
:1019A0005CF822705FF00F0E15F00302D2B29200C5
:1019B0001EFA02FE37EA0E07DFF8E420904201D15A
:1019C000002631E0DFF8DC20904201D101262BE037
:1019D000DFF8D420904201D1022625E0DFF8CC20A8
:1019E000904201D103261FE0DFF8C420904201D1CC
:1019F000042619E02F4A904201D1052614E02E4A10
:101A0000904201D106260FE02C4A904201D10726D0
:101A10000AE02B4A904201D1082605E0294A90426B
:101A200001D1092600E00A26F6B215F00302D2B26F
:101A30009200964037432A0092084CF82270224EBA
:101A40003268A243D1F804C05FEACC3C00D52243FF
:101A500032601E4F3E68A643D1F804C05FEA8C3C5A
:101A600000D526433E601A4F3A68A243D1F804C01D
:101A70005FEACC2C00D522433A60164F3E68A6435D
:101A8000D1F804C05FEA8C2C00D526433E606D1C63
:101A9000F1E6BDE8F1810000443802400838014019
:101AA000000002400004024000080240000C024016
:101AB000001002400014024000180240001C0240C6
:101AC0000020024000240240003C0140043C014050
:101AD000083C01400C3C0140BFF34F8FBFF36F8FB8
:101AE000002049490860BFF34F8FBFF36F8F47480D
:101AF000016851F400310160BFF34F8FBFF36F8F66
:101B00007047BFF34F8FBFF36F8F4048016831F4C8
:101B10000031016000203C490860BFF34F8FBFF3E4
:101B20006F8F704710B4002039490860BFF34F8FA2
:101B300038480168C1F34E32C1F3C900030043F6CF
:101B4000E07010EA421050EA8370334C20601800B5
:101B5000431E0028F3D11000421E0028ECD1BFF331
:101B60004F8F2A48046854F480340460BFF34F8FC9
:101B7000BFF36F8F10BC704710B400202449086079
:101B8000BFF34F8F2148016831F480310160BFF30A
:101B90004F8F20480168C1F34E32C1F3C9000300E2
:101BA00043F6E07010EA421050EA83701B4C20604C
:101BB0001800431E0028F3D11000421E0028ECD16B
:101BC000BFF34F8FBFF36F8F10BC704780B500F02D
:101BD00072F800F07DF800F030F800F027F80028E7
:101BE00001D000F029F800F06CF800200C490860E2
:101BF0000C480D49096801605FF01041096881F3E4
:101C0000088800688047FEE750EF00E014ED00E030
:101C100084ED00E080ED00E060EF00E074EF00E0B4
:101C200010E000E0A80000200400009010B500249F
:101C3000FFF7FCFB204310BDFEE730B591B0002458
:101C4000012005905FF48030069002200B905FF435
:101C500080000C9019200D904FF4D8700E90022047
:101C60000F900820109005A8FEF720FF050028001F
:101C7000C0B2002800D0FEE700F03EF804002000CB
:101C8000C0B2002800D0FEE70F2000900220019093
:101C9000002002904FF4A05003904FF48050049025
:101CA00006216846FFF7E5F80100C9B2002900D017
:101CB000FEE711B030BD80B5FFF70EFFFFF732FF32
:101CC00001BD80B5FFF71DFFFFF756FF01BD000006
:101CD00080B50748016851F4807101600320FFF767
:101CE00074FB0F20FFF7CEF900F004F8002002BDCE
:101CF000003C0240704700007CB500241B4801688E
:101D000051F080510160006810F080500090009800
:101D1000154E306850F480303060FEF755FE0500F7
:101D2000104C2068C00308D4FEF74EFE401B40F262
:101D3000E9318842F4D3032013E0306850F40030D6
:101D40003060FEF741FE06002068800308D4FEF7ED
:101D50003BFE801B40F2E9318842F5D3032000E0CE
:101D6000002076BD04700040007000404038024002
:101D70000F48016851F4700101600E49086850F085
:101D80000100086000200C4A10600A680B480240FD
:101D90000A600B480B4A1060086830F48020086025
:101DA0000020094908605FF000600849086070473A
:101DB00088ED00E00038024008380240FFFFF6FEE0
:101DC00010300024043802400C38024008ED00E0D6
:101DD00030B450F8041B79B10268436802440830FB
:101DE000DC0744BFA9F10104E31852F8045B43F88F
:101DF000045B091FF9D1ECE730BC704710B5074907
:101E000079441831064C7C44163404E00A68081DF5
:101E1000114488470146A142F8D110BD2C000000B2
:101E20004C0000004EF68851CEF20001086840F4E4
:101E300070000860BFF34F8FBFF36F8F4FF00070DB
:101E4000E1EE100A704700008FEBFFFFA4000000D6
:101E50000C0000200000000079FFFFFF0C000000D4
:101E6000B0000000000000200000000000F00DF8AD
:101E7000002801D0FFF7C2FFAFF300800020AFF3CE
:101E80000080FFF7A3FE00F002F80120704700F089
:101E900001B800000746384600F002F8FBE70000F2
:101EA00080B5AFF30080024A11001820ABBEFBE7FB
:101EB0002600020003480168034A1278891801606D
:101EC000704700BFAC000020080000207047FEE70C
:101ED000FEE7FEE7FEE770477047704780B5FFF703
:101EE000E9FF01BD00000000000000000102030442
:101EF000060708090148804701480047711D00088E
:101F0000051F0008AFF30080FFF78CFFFFF7AEFF5F
:101F1000100000000024F40001000000FFF7FEBFE5
:101F2000FFF7FEBFFFF7FEBFFFF7FEBFFFF7FEBFE5
:101F3000FFF7FEBFFFF7FEBFFFF7FEBFFFF7FEBFD5
:101F4000FFF7FEBFFFF7FEBFFFF7FEBFFFF7FEBFC5
:101F5000FFF7FEBFFFF7FEBFFFF7FEBFFFF7FEBFB5
:101F6000FFF7FEBFFFF7FEBFFFF7FEBFFFF7FEBFA5
:101F7000FFF7FEBFFFF7FEBFFFF7FEBFFFF7FEBF95
:101F8000FFF7FEBFFFF7FEBFFFF7FEBFFFF7FEBF85
:101F9000FFF7FEBFFFF7FEBFFFF7FEBFFFF7FEBF75
:101FA000FFF7FEBFFFF7FEBFFFF7FEBFFFF7FEBF65
:101FB000FFF7FEBFFFF7FEBFFFF7FEBFFFF7FEBF55
:101FC000FFF7FEBFFFF7FEBFFFF7FEBFFFF7FEBF45
:101FD000FFF7FEBFFFF7FEBFFFF7FEBFFFF7FEBF35
:101FE000FFF7FEBFFFF7FEBFFFF7FEBFFFF7FEBF25
:101FF000FFF7FEBFFFF7FEBFFFF7FEBFFFF7FEBF15
:10200000FFF7FEBFFFF7FEBFFFF7FEBFFFF7FEBF04
:10201000FFF7FEBFFFF7FEBFFFF7FEBFFFF7FEBFF4
:10202000FFF7FEBFFFF7FEBFFFF7FEBFFFF7FEBFE4
:10203000FFF7FEBFFFF7FEBFFFF7FEBFFFF7FEBFD4
:10204000FFF7FEBFFFF7FEBFFFF7FEBFFFF7FEBFC4
:10205000FFF7FEBFFFF7FEBFFFF7FEBFFFF7FEBFB4
:10206000FFF7FEBFFFF7FEBFFFF7FEBFFFF7FEBFA4
:10207000FFF7FEBFFFF7FEBFFFF7FEBFFFF7FEBF94
:10208000FFF7FEBFFFF7FEBFFFF7FEBFFFF7FEBF84
:10209000FFF7FEBFFFF7FEBFFFF7FEBFFFF7FEBF74
:0420A000FFF7FEBF89
:0200000490006A
:1000000000000520F58D0090994000909B400090E5
:100010009D4000909F400090A14000900000000093
:10002000000000000000000000000000B18100900E
:10003000A34000900000000051820090B582009023
:10004000458E0090458E0090458E0090458E009024
:10005000458E0090458E0090458E0090458E009014
:10006000458E0090458E0090458E0090458E009004
:10007000458E0090458E0090A5400090458E0090E2
:10008000458E0090458E0090458E0090458E0090E4
:10009000458E0090458E0090458E0090458E0090D4
:1000A000458E0090458E0090458E0090458E0090C4
:1000B000458E0090458E0090458E0090458E0090B4
:1000C000458E0090458E0090458E0090458E0090A4
:1000D000458E0090458E0090458E0090458E009094
:1000E000458E0090458E0090458E0090458E009084
:1000F000458E0090458E0090458E0090458E009074
:10010000458E0090458E0090458E0090458E009063
:10011000458E0090458E0090B1400090458E009035
:10012000458E0090BD400090C9400090458E0090E3
:10013000458E0090458E0090458E0090458E009033
:10014000458E0090458E0090458E0090458E009023
:10015000458E0090458E0090458E0090458E009013
:10016000458E0090458E0090458E0090458E009003
:10017000458E0090458E0090458E0090458E0090F3
:10018000458E0090458E0090458E0090458E0090E3
:10019000458E0090458E0090458E0090458E0090D3
:1001A000D5400090458E0090E1400090458E009033
:1001B000458E0090458E0090458E0090458E0090B3
:0801C000458E0090458E009071
:1001D00010B5054C237833B9044B13B10448AFF381
:1001E00000800123237010BD1401002000000000D6
:1001F0008C66019008B5034B1BB103490348AFF36C
:10020000008008BD00000000180100208C660190ED
:1002100053B94AB9002908BF00281CBF4FF0FF316D
:100220004FF0FF3000F072B9ADF1080C6DE904CE6B
:1002300000F006F8DDF804E0DDE9022304B07047C1
:100240002DE9F047089E04468846002B4BD18A4290
:10025000154667D9B2FA82F24AB1C2F1200701FA13
:1002600002F320FA07F7954047EA030894404FEA63
:10027000154E230CB8FBFEF71FFA85FC0EFB178802
:1002800043EA084307FB0CF1994209D9EB1807F13F
:10029000FF3080F01B81994240F21881023F2B44CD
:1002A0005B1AA4B2B3FBFEF00EFB103344EA034426
:1002B00000FB0CFCA44509D92C1900F1FF3380F098
:1002C0000781A44540F2048102382C4440EA0740EB
:1002D000A4EB0C0400271EB1D4400023C6E9004360
:1002E0003946BDE8F0878B4209D9002E00F0EB803B
:1002F0000027C6E9000138463946BDE8F087B3FA61
:1003000083F7002F47D18B4202D3824200F2FA805A
:10031000841A61EB030301209846002EE0D0C6E961
:100320000048DDE702B9FFDEB2FA82F2002A40F0AF
:100330008F80491B4FEA154E1FFA85F80127B1FB44
:10034000FEFC230C0EFB1C1143EA014308FB0CF1DD
:10035000994207D9EB180CF1FF3002D2994200F212
:10036000CD808446591AA3B2B1FBFEF00EFB1014E7
:1003700043EA044408FB00F8A04507D92C1900F112
:10038000FF3302D2A04500F2B6801846A4EB080461
:1003900040EA0C409FE7C7F1200CBB4022FA0CFE5C
:1003A0004EEA030E01FA07F420FA0CF521FA0CF3D9
:1003B0004FEA1E482543B3FBF8F92C0C08FB193310
:1003C0001FFA8EFA44EA034309FB0AF49C4202FA3C
:1003D00007F200FA07F10BD91EEB030309F1FF3016
:1003E00080F087809C4240F28480A9F10209734426
:1003F0001B1BADB2B3FBF8F008FB103345EA034416
:1004000000FB0AFAA24508D91EEB040400F1FF33F1
:100410006BD2A24569D90238744440EA0940A0FB76
:100420000289A4EB0A044C45C2464B4654D351D032
:10043000002E69D0B1EB0A0564EB030404FA0CFC4E
:10044000FD40FC404CEA0505C6E90054002747E79B
:10045000C2F1200320FA03F7954001FA02F021FAD5
:1004600003F34FEA154E3843010CB3FBFEF71FFAB6
:1004700085F80EFB173341EA034107FB08F38B4273
:1004800004FA02F407D9691807F1FF3C2FD28B4216
:100490002DD9023F2944CB1A81B2B3FBFEF00EFBEB
:1004A000103341EA034100FB08F38B4207D9691876
:1004B00000F1FF3C17D28B4215D902382944C91AE2
:1004C00040EA07473BE73746304609E70746E7E695
:1004D0001846FBE64145ABD2B8EB020A69EB0E02C7
:1004E00001381346A4E76046E9E7184695E76746F2
:1004F000D1E781467CE702382C4447E7ACF1020C97
:100500002B442FE7384608E73746E9E6704700BF37
:1005100001F0FF01102A2BDB10F0070F08D010F8B4
:10052000013B013A8B422DD010F0070F42B3F6D1B8
:10053000F0B441EA012141EA014122F007047FF0D1
:1005400000070023F0E80256083C85EA010586EA28
:10055000010685FA47F5A3FA87F586FA47F6A5FA64
:1005600087F68EB9EED1F0BC01F0FF0102F0070270
:1005700032B110F8013B013A83EA010313B1F8D11B
:100580000020704701387047002D06BF35460338FC
:10059000073815F0010F07D1013015F4807F02BF35
:1005A000013015F4C03F0130F0BC0138704700BF86
:1005B00070477047704770477047704700F08BBBBB
:1005C00010B504464FF4927115F076F8204610BD30
:1005D00010B5044600F00EFC014B2046236010BD10
:1005E00010670190704704387047704710B5044693
:1005F000102115F061F8204610BDA0F10400F5E7C8
:100600000022C1608260044A10B502F10804203261
:100610000460426010BD00BF3C67019070B51E468B
:1006200003680446BDF910505B6B98472368314658
:1006300020469A6B9047236829462046DB6BBDE82D
:100640007040184781807047C180704770B503685B
:1006500004461546DB6A98472368294620461B6BEB
:10066000BDE870401847018170474181704770476D
:100670007047704770477047C388D21A8388C91A79
:10068000036812B209B210B45DF8044B5B6D1847F1
:100690004FF6FF7383814FF0FF3303621368C3612A
:1006A0001060704790F825201AB190F8242002B10C
:1006B000186070477047704700F09EBC10B5044644
:1006C00040F6B44114F0F8FF204610BD10B50446C2
:1006D00000F024FD014B2046236010BD706701909F
:1006E00010B50A4604461849034644F8041B111D78
:1006F00003C984E8030002F10C0103F10C0403C9EF
:1007000084E8030051691846596191699961D1697A
:10071000D961B2F920101984B2F92210598492F8E3
:10072000241083F8241092F8251083F82510074927
:100730001960D18CD98492F8281083F8281092F887
:10074000292083F8292010BD2C840190DC810190A0
:100750002DE9F04F00F5A473ADF2C44D054600F14C
:100760006C0B019300F5BA7300F1980A00F1C4090B
:10077000029300F5D07300F1F00800F58E77039333
:1007800000F5E67307AC04939E4B1A780593002A94
:1007900040F00681062621465846268009F0EBFEE9
:1007A00021465046268009F0E6FE2146484626802E
:1007B00009F0E1FE21464046268009F0DCFE214694
:1007C0003846268009F0D7FE21460198268009F098
:1007D000D2FE21460298268009F0CDFE21460398DC
:1007E000268009F0C8FE21460498268009F0C3FE41
:1007F0000122059B584605F52A761A700BF032FC4B
:1008000050460BF02FFC48460BF02CFC40460BF0FA
:1008100029FC38460BF026FC01980BF023FC0298CB
:100820000BF020FC03980BF01DFC04980BF01AFC55
:1008300059462046DFF8CCB1FFF752FF514612A8C7
:10084000FFF74EFF49461DA805F50979FFF748FF58
:10085000414628A805F51478FFF742FF394633A82A
:1008600005F51F77FFF73CFF01993EA8FFF738FF1A
:10087000029949A8FFF734FF039954A8FFF730FF06
:1008800004995FA8FFF72CFF05F5FC716AA8FFF734
:1008900027FF494675A8FFF723FF414680A8FFF7C9
:1008A0001FFF39468BA8FFF71BFF314696A8FFF7BD
:1008B00017FF05F53571A1A8FFF712FF05F5407187
:1008C000ACA8FFF70DFF05F54B71B7A8FFF708FFC0
:1008D00005F55671C2A8FFF703FF05F56171CDA8B4
:1008E000FFF7FEFE05F56C71D8A8FFF7F9FE05F5D8
:1008F0007771E3A8FFF7F4FE05F58161EEA8FFF735
:10090000EFFE05F23441F9A8FFF7EAFE05F58C6128
:100910000DF58260FFF7E4FE05F28C410DF23C40DC
:10092000FFF7DEFE05F597610DF58D60FFF7D8FE48
:1009300005F2E44100250DF29440FFF7D1FE2B595A
:1009400004EB050A9BF800201B6E002A58D00522F4
:10095000ADF8182006A950469847635950462C35E3
:100960005B69984740F2A4439D42E8D148464FF462
:100970008F650BF077FB40460BF074FB38460BF0AD
:1009800071FB30460BF06EFB635960192C3D1B6800
:10099000984715F12C0FF7D10DF2C44DBDE8F08F3B
:1009A000052621465846268009F0E5FD2146504699
:1009B000268009F0E0FD21464846268009F0DBFD4F
:1009C00021464046268009F0D6FD2146384626803D
:1009D00009F0D1FD21460198268009F0CCFD214681
:1009E0000298268009F0C7FD21460398268009F069
:1009F000C2FD21460498268009F0BDFD0022F8E6DC
:100A00000622A5E7300100202DE9F047ADF5956DF0
:100A100004460E4600F16C0101AD04F57777013E06
:100A20004FF0060928464FF0050AFFF759FE04F17A
:100A300098010CA8FFF754FE04F1C40117A8FFF7B2
:100A40004FFE04F1F00122A8FFF74AFE04F58E7173
:100A50002DA8FFF745FE04F5A47138A8FFF740FE66
:100A600004F5BA7143A8FFF73BFE04F5D0714EA818
:100A7000FFF736FE04F5E67159A8FFF731FE04F5DD
:100A8000FC7164A8FFF72CFE04F509716FA8FFF74D
:100A900027FE04F514717AA8FFF722FE04F51F71F2
:100AA00085A8FFF71DFE04F52A7190A8FFF718FE30
:100AB00004F535719BA8FFF713FE04F54071A6A855
:100AC000FFF70EFE04F54B71B1A8FFF709FE04F520
:100AD0005671BCA8FFF704FE04F56171C7A8FFF7C3
:100AE000FFFD04F56C71D2A8FFF7FAFD3946DDA8C9
:100AF000FFF7F6FD04F58161E8A8FFF7F1FD04F2C8
:100B00003441F3A8FFF7ECFD04F58C61FEA8FFF774
:100B1000E7FD04F28C410DF22440FFF7E1FD04F5FE
:100B200097610DF58A60FFF7DBFD04F2E4410024D4
:100B30000DF27C40FFF7D4FD2B5905EB040816F8A5
:100B4000012F1B6E2AB3ADF800A0694640469847B6
:100B50002B5940462C345B69984740F2A4439C4291
:100B6000EAD10523694638464FF48F64ADF800306A
:100B700009F001FD38460BF075FA2B5928192C3C69
:100B80001B68984714F12C0FF7D10DF5956DBDE852
:100B9000F087ADF80090D8E7704704387047704789
:100BA000C06803681B6B1847A0F10400FFF7F8BF8B
:100BB00010B50446102114F07FFD204610BDA0F1B1
:100BC0000400F5E70022C1608260044A10B502F11A
:100BD000080424320460426010BD00BFA467019085
:100BE0000022026070470000F0B50F4E89B0074642
:100BF0001B22356801AC002101352046356014F018
:100C0000DCFDB5F57A7F0DD100233360E25C82F024
:100C10000102E25401331B2BF8D1386821460368E6
:100C20009B68984709B0F0BD3401002070477047B9
:100C300010B504464FF4A87114F03EFD204610BDD7
:100C400010B50446D0F84C01FFF7CEFF2046BDE8B2
:100C500010400AF0A5BC10B50446D0F8340158B1D4
:100C60000368DB68984738B1D4F8340103689B689F
:100C700098470023C4F8343110BD000010B5044675
:100C800001F094FA014B2046236010BDDC6701900F
:100C900070477047002201218280C2800281428118
:100CA0008281C28102824282C261826280F82C20EB
:100CB00080F8251080F82410C0E90522044A02605B
:100CC0004FF6FF72C285028680F83220704700BF5F
:100CD0003881019070477047704730B4C56803464B
:100CE00044686A10ED079B6804EB020048BFA258F5
:100CF00030BC48BFD358184743682BB183682BB921
:100D0000C06800F001007047184670470120704726
:100D100010B50446102114F0CFFC204610BD10B5CC
:100D200004464FF4927114F0C7FC204610BD9C306D
:100D3000884208B505D10AF069FDBDE8084001F018
:100D40007DBA08BD094A026000228280C280028109
:100D500042818281C28102824282C26180F8242063
:100D6000C0E90522012280F8252070472C840190DB
:100D700008B5094B1B682BB9084BDE21084A094806
:100D800014F0A6FC084B02881B889A4203D3074B39
:100D9000DF21034AF3E708BD20A30020A8680190E3
:100DA000106A0190EA68019024A300202B69019049
:100DB00013460C4A70B5146805462CB90A4B382105
:100DC0000A4A0B4814F084FC94F876200AB1E06CCF
:100DD00000B9A0680268D46A0A462946A446BDE85C
:100DE00070406047B0A2002028680190B46901906B
:100DF0006B6801902DE9F04F044687B000250BF099
:100E000041FCA146724BE563FF2649F8403B48464A
:100E1000FFF798FF6F4B04F1700806AF23644FF69D
:100E2000FF73A566404684F86C5004F19C0B84F86F
:100E3000666004F1E00A27F8043D0293FFF782FFA1
:100E4000029B3946644A4046A4F89630226784F8EB
:100E5000983009F090FB584609F0D0FC5046FFF757
:100E600071FF029B5D4A2946A4F8063148465C4B57
:100E7000C4F8E0202A46C4F814315A4BC4F808518B
:100E8000C4F81C314FF48873A4F80C5184F80F5146
:100E900084F8105184F81151C4F8205100934FF494
:100EA000F07384F80E61C4F81841FFF7B7FB3246BF
:100EB00031463046FFF77CFF2A46A0662946404669
:100EC000FFF7C4FB112339464046ADF8143009F052
:100ED00052FB58466A229B21FFF7B8FB09233A468A
:100EE00004A9ADF810300A235846ADF8143009F0C3
:100EF00088FA2346012123F8D01F18460391029354
:100F0000FFF736FF384A029B12689078374A12681A
:100F100052F820701846FFF72BFF354B03991868DD
:100F200001F038FC3A6801460390926A38469047CF
:100F3000039B3A6802901946126C38469047029B10
:100F40003A6813FB00F0526AC3B238460293039B1F
:100F500019469047029B32463146184484F8DD001A
:100F60003046FFF725FF3246C4F8D40031463046FC
:100F7000FFF71EFF04F58A73C4F8D8004022C4F8B6
:100F8000C4305046B821FFF761FB81228220114610
:100F9000FFF70EFFA4F80C51251DC4F808014FF00F
:100FA0000201504609F0E8F94946284608F0C0F821
:100FB0004146284608F0BCF85946284608F0B8F8DB
:100FC0002846514608F0B4F8204607B0BDE8F08F37
:100FD000886901906C800190DC810190F07F019024
:100FE000186801902F0D009020A3002028A3002056
:100FF0002CA30020704770477047704730B4C56815
:10100000034644686A10ED079B6804EB020048BF82
:10101000A25830BC48BFD358184743682BB18368E7
:101020002BB9C06800F001007047184670470120D6
:10103000704710B50446102114F03EFB204610BD49
:1010400010B5044640F6B44114F036FB204610BDFE
:1010500000F5AF628A4202D10368DB6A1847704725
:10106000002310B583800446C380038143818381BC
:10107000C38103824382C36180F82430C0E9053311
:10108000012380F82530054B03604FF6FF73C384BE
:1010900080F8283009F06FFA204610BDDC810190FD
:1010A000F8B54FF6FF73848E06469C422CD000F1B3
:1010B00034073846FFF75CFE154B38461B6813F8BB
:1010C0001420144B1B6853F82250FFF751FE124BAB
:1010D0002146186801F05EFB2B68074601469B6AB3
:1010E000284698472B68044639461B6C2846984783
:1010F00014FB00F42B683946E4B228465B6A984733
:10110000204486F84100F8BD002380F84130FAE71A
:1011100020A3002028A300202CA300202DE9F04FBD
:101120000446BBB000254FF6FF773AAE0BF0AAFAA3
:10113000A246E04B26F8047D3146E56304F6842B95
:101140004AF8403B5046FFF78BFF04F16C033146F1
:10115000ADF8E47018461A93FFF782FF04F1980384
:101160003146ADF8E47018461B93FFF779FF04F1A0
:10117000C4033146ADF8E47018461C93FFF770FFC6
:1011800004F1F0033146ADF8E47018461D93FFF703
:1011900067FF04F58E733146ADF8E47018461E9370
:1011A000FFF75EFF04F5A4733146ADF8E47018460E
:1011B0001F93FFF755FF04F5BA733146ADF8E4709D
:1011C00018462093FFF74CFF04F5D0733146ADF875
:1011D000E47018462193FFF743FF04F5E6733146A8
:1011E000ADF8E47018462293FFF73AFF04F5FC735C
:1011F0003146ADF8E47018462393FFF731FF04F54C
:1012000009733146ADF8E47018462493FFF728FFC0
:1012100004F514733146ADF8E47018462593FFF7D2
:101220001FFF04F51F733146ADF8E470184626938E
:10123000FFF716FF04F52A733146ADF8E47018463F
:101240002793FFF70DFF04F535733146ADF8E470D1
:1012500018462893FFF704FF04F540733146ADF8B4
:10126000E47018462993FFF7FBFE04F54B733146F3
:10127000ADF8E47018462A93FFF7F2FE04F55673B2
:101280003146ADF8E47018462B93FFF7E9FE04F5FC
:1012900061733146ADF8E47018462C93FFF7E0FE19
:1012A00004F56C733146ADF8E47018462D93FFF7E2
:1012B000D7FE04F577733146ADF8E47018462E93E7
:1012C000FFF7CEFE04F581633146ADF8E4701846B1
:1012D0002F93FFF7C5FE04F234433146ADF8E470B6
:1012E00018463093FFF7BCFE04F58C633146ADF829
:1012F000E47018463193FFF7B3FE04F28C43314695
:10130000ADF8E47018463293FFF7AAFE04F5976330
:101310003146ADF8E47018463393FFF7A1FE04F2AE
:10132000E4433146ADF8E47018463493FFF798FE75
:1013300004F5A2634FF005094FF0060818463593EF
:10134000FFF7A8FC04F2445338AF18463693FFF772
:10135000A1FC04F5AF631846009309F04FFA04F2BC
:10136000BC531846019309F049FA04F5C0631846C6
:10137000029309F043FA04F244631846039309F018
:101380003DFA04F5D1631846049309F037FA04F2E4
:10139000CC631846059309F031FA04F5E263184668
:1013A000069309F02BFA04F254731846079309F0D8
:1013B00025FA04F5F3631846089309F01FFA04F2BE
:1013C000DC731846099309F019FA04F5026318460C
:1013D0000A9309F013FA04F6640318460B9309F014
:1013E0000DFA04F6A80318460C9309F007FA04F660
:1013F000EC0318460D9309F001FA04F5136318463F
:101400000E9309F0FBF904F6741318460F9309F0D4
:10141000F5F904F6B8131846109309F0EFF904F63D
:10142000FC131846119309F0E9F904F524631846F2
:10143000129309F0E3F9584609F0E0F904F6C823DD
:101440001846139309F0DAF904F60C33184614938E
:1014500009F0D4F904F535631846159309F0CEF96F
:1014600004F694331846169309F0C8F904F6D833F5
:101470001846179309F0C2F904F61C43184618934E
:1014800009F0BCF904F546631846199309F0B6F95A
:10149000094B2A46C4F8B05CC4F8A43C2946074B63
:1014A0005046C4F8A84CC4F8AC3CFFF7CFF84FF056
:1014B000120305E0606A0190486A019051100090A3
:1014C00031465046ADF8E43009F055F807221A9835
:1014D0007421FFF7BBF831461A98ADF8E49009F093
:1014E0004AF807221B984FF48271FFF7AFF8314694
:1014F0001B98ADF8E49009F03EF807221C984FF4D1
:10150000CA71FFF7A3F831461C98ADF8E49009F0D2
:1015100032F824221D987421FFF798F831461D985F
:10152000ADF8E49009F027F824221E984FF4827158
:10153000FFF78CF831461E98ADF8E49009F01BF8DF
:1015400024221F984FF4CA71FFF780F831461F9884
:10155000ADF8E49009F00FF8412220987421FFF7CC
:1015600075F831462098ADF8E49009F004F841226E
:1015700021984FF48271FFF769F831462198ADF850
:10158000E49008F0F8FF412222984FF4CA71FFF767
:101590005DF831462298ADF8E49008F0ECFF5E2249
:1015A00023987421FFF752F831462398ADF8E49060
:1015B00008F0E1FF5E2224984FF48271FFF746F8AD
:1015C00031462498ADF8E49008F0D5FF5E222598C6
:1015D0004FF4CA71FFF73AF831462598ADF8E49018
:1015E00008F0C9FF7B2226987421FFF72FF83146B7
:1015F0002698ADF8E48008F0BEFF7B2227984FF4D0
:101600008271FFF723F831462798ADF8E48008F09F
:10161000B2FF7B2228984FF4CA71FFF717F83146C2
:101620002898ADF8E48008F0A6FF98222998742144
:10163000FFF70CF831462998ADF8E48008F09BFFDD
:1016400098222A984FF48271FFF700F831462A98C1
:10165000ADF8E48008F08FFF98222B984FF4CA7100
:10166000FEF7F4FF31462B98ADF8E48008F083FFD5
:10167000B5222C987421FEF7E9FF31462C98ADF87D
:10168000E48008F078FFB5222D984FF48271FEF7C0
:10169000DDFF31462D98ADF8E48008F06CFFB522EF
:1016A0002E984FF4CA71FEF7D1FF31462E98ADF84F
:1016B000E48008F060FFD2222F987421FEF7C6FF65
:1016C00031462F98ADF8E48008F055FFD2223098CB
:1016D0004FF48271FEF7BAFF31463098ADF8E480DE
:1016E00008F049FFD22231984FF4CA71FEF7AEFFDD
:1016F00031463198ADF8E48008F03DFFEF22329892
:101700007421FEF7A3FF31463298ADF8E48008F06B
:1017100032FFEF2233984FF48271FEF797FF314684
:101720003398ADF8E48008F026FFEF2234984FF4A8
:10173000CA71FEF78BFF31463498ADF8E48008F0AB
:101740001AFF424635984FF4DA71FEF77FFF1423F3
:10175000324639463598ADF8E030ADF8E43037938D
:1017600008F04FFE36988B224FF4DA71FEF76EFFC9
:10177000379B324639463698ADF8E030ADF8E43064
:1017800008F03FFE009802226FF00101FEF75EFFB5
:10179000394632460098ADF8E050ADF8E45008F014
:1017A00030FE03220098A4F8AC25FFF779FC2A4606
:1017B00029462846FFF7FCFAFF22C4F8B005114677
:1017C0001046FFF7F5FA04F6A442C4F8B4058E21DA
:1017D000C4F8A02502220198FEF738FF39463246A8
:1017E0000198ADF8E050ADF8E45008F00AFE04228C
:1017F0000198A4F8F025FFF753FC2A46294628460D
:10180000FFF7D6FAFF22C4F8F40511461046FFF799
:10181000CFFA0222C4F8F8054FF48F710298FEF750
:1018200015FF324639460298ADF8E050ADF8E45065
:1018300008F0E7FD0298A4F83496FFF731FC2A4639
:1018400029462846FFF7B4FAFF22C4F838061146A5
:101850001046FFF7ADFA2022C4F83C066FF00101F4
:101860000398FEF7F3FE324639460398ADF8E05090
:10187000ADF8E45008F0C5FD0398A4F87886FFF7AA
:101880000FFC2A4629462846FFF792FAFF22C4F8A1
:101890007C0611461046FFF78BFA2022C4F880061A
:1018A0008E210498FEF7D2FE394632460498ADF8F0
:1018B000E050ADF8E45008F0A4FD07220498A4F825
:1018C000BC26FFF7EDFB2A4629462846FFF770FAAB
:1018D000FF22C4F8C00611461046FFF769FA20221D
:1018E000C4F8C4064FF48F710598FEF7AFFE394671
:1018F00032460598ADF8E050ADF8E45008F081FDAF
:1019000008220598A4F80027FFF7CAFB2A462946B3
:101910002846FFF74DFAFF22C4F804071146104687
:10192000FFF746FA3D22C4F808076FF00101069858
:10193000FEF78CFE394632460698ADF8E050ADF819
:10194000E45008F05EFD09220698A4F84427FFF74A
:10195000A7FB2A4629462846FFF72AFAFF22C4F8A1
:10196000480711461046FFF723FA3D22C4F84C07FA
:101970008E210798FEF76AFE394632460798ADF881
:10198000E050ADF8E45008F03CFD0A220798A4F8B6
:101990008827FFF785FB2A4629462846FFF708FADD
:1019A000FF22C4F88C0711461046FFF701FA3D22CA
:1019B000C4F890074FF48F710898FEF747FE394638
:1019C00032460898ADF8E050ADF8E45008F019FD43
:1019D0000B220898A4F8CC27FFF762FB2A46294679
:1019E0002846FFF7E5F9FF22C4F8D0071146104654
:1019F000FFF7DEF95A22C4F8D4076FF00101099805
:101A0000FEF724FE394632460998ADF8E050ADF8AD
:101A1000E45008F0F6FC0C220998A4F81028FFF70F
:101A20003FFB2A4629462846FFF7C2F9FF22C4F8A1
:101A3000140811461046FFF7BBF95A22C4F81808DB
:101A40008E210A98FEF702FE394632460A98ADF812
:101A5000E050ADF8E45008F0D4FC0D220A98A4F848
:101A60005428FFF71DFB2A4629462846FFF7A0F910
:101A7000FF22C4F8580811461046FFF799F95A2278
:101A8000C4F85C084FF48F710B98FEF7DFFD394600
:101A900032460B98ADF8E050ADF8E45008F0B1FCD8
:101AA0000E220B98A4F89828FFF7FAFA2A4629463E
:101AB0002846FFF77DF9FF22C4F89C08114610461E
:101AC000FFF776F97822C4F8A0086FF001010C98AE
:101AD000FEF7BCFD394632460C98ADF8E050ADF843
:101AE000E45008F08EFC0F220C98A4F8DC28FFF7D5
:101AF000D7FA2A4629462846FFF75AF9FF22C4F8A2
:101B0000E00811461046FFF753F97822C4F8E408BC
:101B10008E210D98FEF79AFD394632460D98ADF8A4
:101B2000E050ADF8E45008F06CFC10220D98A4F8D9
:101B30002029FFF7B5FA2A4629462846FFF738F943
:101B4000FF22C4F8240911461046FFF731F9782224
:101B5000C4F828094FF48F710E98FEF777FD3946C7
:101B600032460E98ADF8E050ADF8E45008F049FC6C
:101B700011220E98A4F86429FFF792FA2A46294602
:101B80002846FFF715F9FF22C4F8680911461046E8
:101B9000FFF70EF99422C4F86C096FF001010F9859
:101BA000FEF754FD324639460F98ADF8E050ADF8D7
:101BB000E45008F026FC4FF012030F98A4F8A8395F
:101BC000FFF76EFA2A4629462846FFF7F1F8FF226A
:101BD000C4F8AC0911461046FFF7EAF89422C4F89D
:101BE000B0098E211098FEF731FD39463246109823
:101BF000ADF8E050ADF8E45008F003FC1322109863
:101C0000A4F8EC29FFF74CFA2A4629462846FFF7A4
:101C1000CFF8FF22C4F8F00911461046FFF7C8F8C4
:101C20009422C4F8F4094FF48F711198FEF70EFD59
:101C3000324639461198ADF8E050ADF8E45008F05E
:101C4000E0FB379B1198A4F8303AFFF729FA2A46AF
:101C500029462846FFF7ACF8FF22C4F8340A11469B
:101C60001046FFF7A5F8B122C4F8380A6FF0010159
:101C70001298FEF7EBFC324639461298ADF8E05068
:101C8000ADF8E45008F0BDFB15231298A4F8743A9F
:101C9000FFF706FA2A4629462846FFF789F8FF2269
:101CA000C4F8780A11461046FFF782F8B122C4F84A
:101CB0007C0A8E215846FEF7C9FC32463946584602
:101CC000ADF8E050ADF8E45008F09BFB1623584601
:101CD000A4F8B83AFFF7E4F92A4629462846FFF760
:101CE00067F8FF22C4F8BC0A11461046FFF760F8F7
:101CF000B122C4F8C00A4FF48F711398FEF7A6FC06
:101D0000324639461398ADF8E050ADF8E45008F08B
:101D100078FB17231398A4F8FC3AFFF7C1F92A4679
:101D200029462846FFF744F8FF22C4F8000B114665
:101D30001046FFF73DF8CE22C4F8040B6FF0010106
:101D40001498FEF783FC324639461498ADF8E050FB
:101D5000ADF8E45008F055FB18231498A4F8403B64
:101D6000FFF79EF92A4629462846FFF721F8FF2269
:101D7000C4F8440B11461046FFF71AF8CE22C4F8F7
:101D8000480B8E211598FEF761FC324639461598AE
:101D9000ADF8E050ADF8E45008F033FB1923159886
:101DA000A4F8843BFFF77CF92A4629462846FEF72B
:101DB000FFFFFF22C4F8880B11461046FEF7F8FF1C
:101DC000CE22C4F88C0B4FF48F711698FEF73EFCB0
:101DD000324639461698ADF8E050ADF8E45008F0B8
:101DE00010FB1A231698A4F8C83BFFF759F92A46A6
:101DF00029462846FEF7DCFFFF22C4F8CC0B11462B
:101E00001046FEF7D5FFEB22C4F8D00B6FF00101AE
:101E10001798FEF71BFC324639461798ADF8E0508C
:101E2000ADF8E45008F0EDFA1B231798A4F80C3C29
:101E3000FFF736F92A4629462846FEF7B9FFFF2262
:101E4000C4F8100C11461046FEF7B2FFEB22C4F89E
:101E5000140C8E211898FEF7F9FB32463946189873
:101E6000ADF8E050ADF8E45008F0CBFA1C23189818
:101E7000A4F8503CFFF714F92A4629462846FEF7F5
:101E800097FFFF22C4F8540C11461046FEF790FF4E
:101E9000EB22C4F8580C4FF48F711998FEF7D6FB5B
:101EA000324639461998ADF8E050ADF8E45008F0E4
:101EB000A8FA1D231998A4F8943CFFF7F1F82A46D4
:101EC00029462846FEF774FFFF22251DC4F8980C0A
:101ED00011461046FEF76CFF5146C4F89C0C28468C
:101EE00007F026F91A99284607F022F91B99284687
:101EF00007F01EF91C99284607F01AF91D99284683
:101F000007F016F91E99284607F012F91F9928467E
:101F100007F00EF92099284607F00AF9219928467A
:101F200007F006F92299284607F002F92399284676
:101F300007F0FEF82499284607F0FAF82599284674
:101F400007F0F6F82699284607F0F2F82799284670
:101F500007F0EEF82899284607F0EAF8299928466C
:101F600007F0E6F82A99284607F0E2F82B99284668
:101F700007F0DEF82C99284607F0DAF82D99284664
:101F800007F0D6F82E99284607F0D2F82F99284660
:101F900007F0CEF83099284607F0CAF8319928465C
:101FA00007F0C6F83299284607F0C2F83399284658
:101FB00007F0BEF83499284607F0BAF83599284654
:101FC00007F0B6F83699284607F0B2F80099284687
:101FD00007F0AEF80199284607F0AAF802992846BA
:101FE00007F0A6F80399284607F0A2F804992846B6
:101FF00007F09EF80599284607F09AF806992846B2
:1020000007F096F80799284607F092F808992846AD
:1020100007F08EF80999284607F08AF80A992846A9
:1020200007F086F80B99284607F082F80C992846A5
:1020300007F07EF80D99284607F07AF80E992846A1
:1020400007F076F80F99284607F072F8109928469D
:1020500007F06EF81199284607F06AF81299284699
:1020600007F066F85946284607F062F813992846A3
:1020700007F05EF81499284607F05AF81599284693
:1020800007F056F81699284607F052F8179928468F
:1020900007F04EF81899284607F04AF8284619998B
:1020A00007F046F820463BB0BDE8F08F7047704718
:1020B0004160704770477047012303727047704753
:1020C00010B4C468034641686210E4079B6801EBE2
:1020D000020048BF8A585DF8044B48BFD3581847E0
:1020E00043682BB183682BB9C06800F001007047CA
:1020F000184670470120704710B504460C2113F0B4
:10210000DBFA204610BD10B504464FF4A87113F059
:10211000D3FA204610BD10B50446102113F0CCFAB6
:10212000204610BD70B516460C46054609F06EFBFC
:1021300009F072FB306810B10368DB6898473068BB
:1021400010B103681B689847286810B103685B6981
:102150009847206810B103685B689847286810B1F9
:1021600003681B689847206820B10368BDE8704089
:102170009B68184770BD70B503680E461446054647
:10218000DB689847336830461B68984721462846E5
:102190000AF0F2FB236820461B69984709F036FBDA
:1021A0000368BDE870409B6A18470000F8B5044614
:1021B00017460E4609F04CFB144B0025C4F84C6141
:1021C0001C602946124B134E2360134B3068C4F831
:1021D0003051C4F83451C4F83831C4F83C51C4F813
:1021E0004051C4F84451C4F8487103689B6898474B
:1021F000284600F095FA336893F876200AB1D86C37
:1022000000B998680EF009FB2046F8BD1CA3002019
:10221000B06A0190B0A20020986A0190064BC0F805
:102220003C01C0F840310023C0F8443100F59C73F4
:10223000C0F83431704700BF39230090064BC0F816
:102240003C01C0F840310023C0F8443100F59C73D4
:10225000C0F83431704700BF3D2400902DE9F047AD
:10226000804690689A46894603681446089F1B6A10
:102270009847B0F5927F05D2294BC221294A2A48B6
:1022800013F026FA606803681B6A98470F2803D882
:10229000264BC321234AF2E7E06803681B6A98478C
:1022A0000B2803D8224BC4211E4AE8E75246494670
:1022B0004046FFF737FFE068002103685B6A9847F4
:1022C000054620B10023436003721A4B0360A068E7
:1022D000002103685B6A9847064608B1FEF778F963
:1022E0006068002103685B6A9847044610B1314674
:1022F000FEF786F9CAF80050C9F80040C8F8006037
:102300005CB1231D3B603046A7602A46F46321463A
:10231000FFF731FF2046BDE8F0872346F2E700BF14
:10232000046B01901B6E0190926B0190D36B019036
:10233000766C0190EC6A019007B5D0F84C3100F54D
:1023400098710093044BD0F848210448FFF786FFAA
:1023500003B05DF804FB00BF10A300200CA3002015
:102360002DE9F047804690689A46894603681446EE
:10237000089F1B6A984740F6B343984205D8294BFB
:10238000C221294A294813F0A3F9606803681B6A2F
:1023900098470F2803D8264BC321234AF2E7E06869
:1023A00003681B6A98470B2803D8224BC4211E4A96
:1023B000E8E7524649464046FFF7B4FEE068002190
:1023C00003685B6A9847054620B1002343600372A7
:1023D000194B0360A068002103685B6A98470646B2
:1023E00008B1FEF773F96068002103685B6A9847DB
:1023F000044610B13146FEF7E5FBCAF80050C9F8B3
:102400000040C8F800605CB1231D3B603046A76007
:102410002A46F4632146FFF7AEFE2046BDE8F0876A
:102420002346F2E7046B0190196D0190926B0190C5
:10243000D36B0190766C0190EC6A019007B5D0F8EF
:102440004C3100F598710093044BD0F848210448B2
:10245000FFF786FF03B05DF804FB00BF10A3002068
:102460000CA30020704710B50446242113F024F972
:10247000204610BD30B5164D8BB02C78BFF35B8F66
:1024800014F0010421D1284613F0EEF8E8B13F23FF
:10249000042210490793104B029406930F4B1048E7
:1024A00005930123CDE903430323CDE90844CDE996
:1024B000003238220E2300F05FF8284613F0E0F8CF
:1024C000084A0949064813F0F2F805480BB030BD38
:1024D0003801002000001090D81310901C6F01905C
:1024E0003C010020000000206524009013B500226C
:1024F00002AB019203F8052D0268946801AAA04777
:1025000002B010BD4089704780897047808870474D
:1025100083798088184480B27047C07900F07F00CA
:102520007047C079C0097047006A70478B8880691E
:10253000DB0A0A6850F823001044704730B5C2B176
:10254000137BB3B1547BD27A240204F4E0642243B7
:1025500094B213449C420CDAC26902EB840532F84F
:1025600024208A4202D195F9020030BD0134A4B280
:10257000F0E70020F9E7000030B589B00446BDF867
:1025800050500695BDF84C5005959DF84050049567
:102590009DF83C5003959DF8385002959DF83450B5
:1025A00001959DF83050009509F016FE054B204628
:1025B0002360119BA361129BE361159B236209B009
:1025C00030BD00BF906F019030B5164D8BB02C78A8
:1025D000BFF35B8F14F0010420D1284613F044F8B8
:1025E000E0B13F230D2210490793104B029406934C
:1025F0000F4B104805930123CDE903430423CDE994
:102600000844CDE900430C23FFF7B6FF284613F03A
:1026100037F8094A0949074813F049F805480BB04B
:1026200030BD00BF60010020B8181090500E10900F
:10263000DC6F019064010020000000206524009000
:1026400030B5154D8BB02C78BFF35B8F14F00104BF
:102650001ED1284613F008F8D0B1104B12221049B1
:102660000693104B07941048CDE904430423CDE9A9
:102670000844CDE90043CDE902441823FFF77CFF6D
:10268000284612F0FDFF094A0949074813F00FF8E0
:1026900005480BB030BD00BF88010020A01010908D
:1026A000B81A1090E06F01908C010020000000200B
:1026B00065240090704710B50446042112F0FCFF19
:1026C000204610BD012908B508D003D3022909D03E
:1026D000002002E000F012F8006808BD00F00EF8DB
:1026E0004068FAE700F00AF88068F6E700487047AB
:1026F000F86F0190152070471E2070470048704702
:10270000B001002010B5054CFFF79AFF2060FFF7DD
:102710005BFF6060FFF7AEFEA06010BDB00100205F
:1027200038B5D8B9114B12481B681249BBB11A68A9
:102730009C681A441C4402605A681A440A606CB1CE
:102740000D4B00221A80FFF7D9FF0546FFF7D4FF93
:102750000A4B1C600A4B1D600A4B188038BD0A4B9F
:1027600003600A4B0B600A4B1C68E8E7BC010020C1
:10277000C0010020C4010020D801002020A30020B7
:1027800028A3002024A30020AC2010903420109017
:10279000C8221090044B1B6853F82100034B1B68A0
:1027A00003EB4000704700BFC4010020C0010020BF
:1027B000012380F8741080F8753070474068036812
:1027C0001B68184700207047836B0BB108461847F9
:1027D00070474FF6FF707047406803689B69184761
:1027E000034B902283F85A2383F85823704700BF85
:1027F00000E100E0094A0A49D3680A48C3F30A0322
:10280000013B9BB20B801169C1F30A0101390180C0
:102810001364536B43F00103536370470068014036
:10282000DC010020DA010020014B986A704700BFEC
:1028300084680140024B0122996243F8602C704782
:102840008468014008B531B90A4B40F237310A4A71
:102850000A4812F03DFFC0E90F12003243640849F4
:1028600018BF012200330A7018BF0123054A1370F4
:1028700008BD00BFB971019084720190F17101909F
:10288000AEA20020AFA200202DE9F04799461C4BD4
:1028900088460746196814469DF8205091F876300E
:1028A0000BB1C86C00B9886803689B6A9847154BE0
:1028B0001E887043B9F1000F16D008EB00010A46DC
:1028C000ADB10B18013CA4B21F2C12D8012101FAA2
:1028D00004F40D49214061B1396838464C6F4146D6
:1028E000A446BDE8F047604741464A46E8E72B4624
:1028F000E8E7064B40F22531054A064812F0E8FEAB
:10290000B0A20020ACA200208B8080809C7101903E
:1029100030720190F171019006F04FBD10B5044680
:1029200007F0B4FA23682046D3F89030BDE8104091
:102930001847000030B590F8744090F83410104BF0
:102940008C421A780DD05AB90E4A0F4914880F4894
:102950000C8001880E4D11800122298004801A709C
:1029600030BD002AFCD00948074A0188084D118073
:10297000044A1488118000222C800480EFE700BFF5
:10298000A8A20020A4A20020AAA20020A6A20020A3
:10299000ACA20020034B4FF080629A604FF080722F
:1029A0009A60704700E100E0084B4FF08062C3F886
:1029B0008820BFF34F8FBFF36F8F4FF08072C3F843
:1029C0008820BFF34F8FBFF36F8F704700E100E0A7
:1029D00038B5044606F0D2FF2368DD6C08F016FF18
:1029E00001462046A8472368054A4FF040415D6FE5
:1029F00020460023A847002384F84A3038BD00BF92
:102A000000FA05C0134B144A10B51B6C1188134C07
:102A10008B4213D1124B198802F058FA226892F8AF
:102A20006630013382F8663000F07AFA206807F0E9
:102A30002DFA0020BDE8104000F00BBD02F046FA70
:102A4000002000F007FD20680368BDE810409B6986
:102A5000184700BF00680140DC010020B0A2002040
:102A6000DA010020134A0023F0B5C2F88430BFF326
:102A70004F8FD2F8803043F6E076C3F3C904C3F336
:102A80004E33A5075B0103EA060C284621464CEAB3
:102A90000007013900F14040C2F874724F1CF6D1B2
:102AA000203B13F1200FEED1BFF34F8FBFF36F8F99
:102AB000F0BD00BF00ED00E003685B6C184700202C
:102AC000704703689B6A184740F2EF107047000098
:102AD00010B5074C074B2046236003F040FD064B22
:102AE0004FF080622361054B6361054B9A6010BD16
:102AF00028A7002000B00240212B0090052B009059
:102B000000E100E008B5034A3E21034B034812F000
:102B1000DFFD00BF4C73019057850190D272019088
:102B200010B5FFF79FFF044B1B6858680368BDE8AA
:102B300010405B69184700BFB0A20020084B10B5D9
:102B400003600446074803F0D7FD074B4FF080624F
:102B5000C3F88820BFF34F8FBFF36F8F204610BD9F
:102B60000473019028A7002000E100E010B504469E
:102B7000FFF7E4FF4FF44261204612F09DFD20462E
:102B800010BD0000044B1B6893F876200AB1D86C86
:102B900000B99868704700BFB0A200202DE9F3414A
:102BA0000D680C46202D00F0A480402D00F0A1807F
:102BB0002A1F56425641802D00F09D80A5F5807356
:102BC0005D425D41FFF7DEFF03681B6A984723689B
:102BD000402B00F0A78000F29080042B00F09B8037
:102BE000202B00F09F8010284FF0000114BF4FF001
:102BF000010C4FF0020C524B1028228AB4F81680B8
:102C000018BF0127D3F800E008BF0227A8EB02088D
:102C100059609F60C3F80C80DEF8002022F4403237
:102C20001143CEF80010D3F800E0C3F82CC0DEF852
:102C3000341021F007013943CEF83410DEF840207B
:102C400022F47F5222F03F0242EA0802CEF84020EE
:102C5000A28A218A521A9A620EB9002D34D0227F9C
:102C6000FF2A17BF022200221A63227F0CBF1A63B9
:102C70005A6305B3227F1028A1694FEA026054D13C
:102C800001F01F024FF01F0CC2EB022292FBFCF27C
:102C90000243C1F3C420C1F34511C0EB0020C1EBD6
:102CA000012190FBFCF042EA00423F2091FBF0F151
:102CB00042EA01225A63218AE28A2148521A0021FB
:102CC000C3E9062703F0E4FD01211D4803F0E0FD00
:102CD000FFF7C8FE238A628A06B94DB361681848B7
:102CE000CDE90032E3681A4603F086FC02B0BDE885
:102CF000F081012662E7012564E7802B06D0B3F559
:102D0000807F7FF470AF4FF0090C01E04FF00A0CA8
:102D10004FF400316FE7102814BF4FF0010C4FF053
:102D2000020CF5E74FF0000CF2E701435963C2E7EC
:102D300000926168E268024803F03FFCD6E700BFFA
:102D400028A70020F7B50D46FFF71CFF03681B6A94
:102D500098471028AB69297F73D103F01F021F2009
:102D6000C2EB022292FBF0F4C3F3C42244EA0164F2
:102D7000C3F34513C2EB0222C3EB032392FBF0F231
:102D800044EA02443F2293FBF2F3022244EA032482
:102D90002B682E48082BEF8A2B8A0CBF4FF4003685
:102DA0004FF44036FF1A0368B6F5003FC760C0E92C
:102DB0000162196821F4403141EA06011960D0F836
:102DC00000C0DCF8341021F0070141EA0201CCF820
:102DD0003410DCF8403023F47F5323F03F0343EA00
:102DE0000703CCF8403021D10123C0E90C3409237A
:102DF000C362298AEB8A5B1A0021C0E9063203F01C
:102E000047FD0121114803F043FDFFF72BFEB6F506
:102E1000003F2B8A6A8A0DD1E9680C48CDE900325F
:102E20000B460A4603F0E8FB03B0F0BD0023C26284
:102E30008362E6E700922146EA68044803F0BDFB9E
:102E4000F2E743EA01640122A2E700BF28A70020BD
:102E500070B505460A4B0C3000262C46602268608F
:102E60002E726E7244F8203B214607F053F905F5A7
:102E70004263A6612034A342FBD1284670BD00BF47
:102E80000473019003220021012008B503F0D2FF52
:102E9000074A106020B100231A46194603F0F0FFDC
:102EA00001210022084603F0C5FF024B186008BD4F
:102EB000E0010020E4010020024B4FF0FF311868D0
:102EC00004F004BAE0010020002303481A46194622
:102ED000006803F0D5BF00BFE0010020024B0021D5
:102EE000186804F0F3B900BFE001002007B5002323
:102EF00002A941F8043D084B186804F0E4F8019B6E
:102F00003BB1064B4FF080521A60BFF34F8FBFF3B7
:102F10006F8F03B05DF804FBE001002004ED00E0DA
:102F20000B4B07B5186880B1002302AA094942F883
:102F3000043D04F05FF8019B3BB1074B4FF080521A
:102F40001A60BFF34F8FBFF36F8F03B05DF804FBC0
:102F5000E40100201400002004ED00E038B5074D26
:102F60000022074C2946206804F00AF92946206807
:102F70004FF0FF32BDE8384004F002B914000020E1
:102F8000E4010020704770477047012070475420CB
:102F90007047542303FB010008307047542303FBA0
:102FA0000100083070470120704740F6B440704778
:102FB00040F6B44303FB01000830704740F6B443C9
:102FC00003FB010008307047012070471020704754
:102FD00000EB01100830704700EB0110083070471B
:102FE0000846FFF71BB90000034B10B50446036009
:102FF00005F0ACFF204610BDF073019010B50446FB
:10300000FFF7F2FF5C21204612F056FB204610BD70
:10301000034B10B50446036005F098FF204610BD31
:10302000BC73019010B50446FFF7F2FF40F6BC41B7
:10303000204612F041FB204610BD0000034B10B5A6
:103040000446036005F082FF204610BD887301909E
:1030500010B50446FFF7F2FF1821204612F02CFBB2
:10306000204610BD084B10B50446036000F6E8404A
:10307000FFF7BAFF04F12C00FFF7CAFF04F11400B8
:10308000FFF7DCFF204610BD2474019010B5044604
:10309000FFF7E8FF40F69861204612F00DFB20464E
:1030A00010BD10B50446582112F006FB204610BD95
:1030B0002DE9F341FFF71AFB00240546FFF71AFB41
:1030C000234601462246284600940AF05DF9274B24
:1030D000274A2046274D1A60FFF722FB26480AF0B0
:1030E000A1F82B78BFF35B8FDB0738D4284612F0AA
:1030F000BBFA002833D0214C214B04F6445604F18E
:10310000140004F12C0804F6E8476060C4F8088055
:10311000E7602661236005F01BFF1A4B40466361A0
:1031200005F016FF184B3846E36205F011FF174B08
:10313000224604F69461C4F8E83C3046FDF79EFD53
:1031400004F69460FDF74CFD3046FFF767F828461B
:1031500012F096FA0E4A0F49204612F0A8FA0E48CD
:1031600002B0BDE8F04100F041B900BF2CA300203F
:10317000201D0020E801002018000020EC010020A4
:103180002474019088730190BC730190F0730190D6
:103190000000002065300090A81C0020014800F0CD
:1031A0009DB800BFA81C002010B50446042112F0F1
:1031B00083FA204610BD10B50446782112F07CFA3F
:1031C000204610BD2DE9F3411A4C1B4F1B4B2246E4
:1031D0001B4D38461B493B6012F069FA1A4E2846CF
:1031E000FFF736FE22461949284612F060FA3046AB
:1031F0000CF0F0FA22461649304612F058FA2246F0
:103200001449154812F053FADFF854804FF4F07364
:103210004FF4887229464046CDE9003232463B469B
:1032200000F08EF822460D49404602B0BDE8F0415C
:1032300012F03DBA00000020841000203875019083
:1032400088100020872F0090241D00203D2B009027
:10325000852F0090B526009018000020892F00903F
:10326000A81C002070470000F8B5FFF755FB134A73
:103270000023C2F88430BFF34F8FD2F8803043F67A
:10328000E076C3F3C904C3F34E33A5075B0103EA39
:10329000060C284621464CEA0007013900F140405F
:1032A000C2F874724F1CF6D1203B13F1200FEED1FF
:1032B000BFF34F8FBFF36F8FF8BD00BF00ED00E08D
:1032C000FFF7B2BAFFF78CBAFFF764BBFFF76CBB2E
:1032D000FFF790BAFFF7AEBA06F069B808B5036811
:1032E00004469B6E9847236820461B6E9847FFF75D
:1032F00035FE236820469B6D98474FF48051074860
:1033000003F0E3F80821064803F0DFF8FFF726FE94
:10331000236820469B6D9847F8E700BF00200240D5
:103320000028024008B5054B01461B6800B1012189
:10333000184606F0C5FD012008BD00BFB0A2002060
:10334000C0E901120122C360002380F8492080F8FF
:103350004A2002F18072038542661D4A80F82A30B5
:10336000C362038680F84830436580F8683080F88F
:10337000693080F86A3080F86B3080F86C3070B556
:10338000C0E90433BDF81050BDF81460C0E906333D
:10339000C0E90833C0E90E33C0E91033C0E9133384
:1033A0000367B54210600B4A80F8753015800A4AF1
:1033B00016800A4A13700A4B1D8028BF0025094B4E
:1033C00038BF01251E80084B80F83450036070BD63
:1033D000B0A20020A4A20020A6A20020A8A2002043
:1033E000AAA20020ACA200203874019038B504468F
:1033F000064D00F02DF82046FFF7EAFA284600F0C7
:103400005DF80123256184F86C3038BD7C1D0020F7
:103410000149002004F014BB2533009010B5044688
:103420000C2112F049F9204610BD00000448002389
:10343000044A43608360044B0449036012F037B9C7
:103440007C1D0020000000207C75019065320090FA
:10345000704770477047704730B58DB00D461446C1
:1034600000212C2201A812F0A8F901A805F0E8FA21
:103470009DF8040030B1BDF8063001202B60BDF886
:10348000103023600DB030BD08B54FF488714FF493
:10349000F07005F07DFA28B1034B1D21034A044862
:1034A00012F016F908BD00BFE47401904875019050
:1034B000057501904068704741607047094A13687C
:1034C00043F080731360A2F54E42074B4C3A1168EB
:1034D0000B431360A2F57B62136843F00103136092
:1034E000704700BFFCED00E055CEACC5521A02EBB0
:1034F0005302B2FBF3F07047014B1868704700BFEE
:10350000041000E010B5036804461B6931B1984708
:10351000A26863689B1A1844606010BD9847A06059
:10352000FBE7000014490020D1F8883043F4700311
:10353000C1F88830114B1A6842F001021A60986095
:103540001A6822F0847222F480321A600C4A5A609F
:103550001A6822F480221A60D8609A6B42F0010245
:103560009A634FF02042136823F0010313604FF079
:1035700010438B60704700BF00ED00E00038024050
:103580001030002430B5B5B030220021012507A845
:10359000022412F012F91422002102A812F00DF9EF
:1035A0008422002113A812F008F9294B4FF0190CBE
:1035B00007A81A6C42F080521A641B6C03F0805307
:1035C0000093009B234B1A6842F440421A601B6828
:1035D00003F440430193019B4FF48033CDE907533B
:1035E0004FF48003CDE90D434FF4D873CDE9114476
:1035F000CDE90FC301F01AFD00B1FEE701F086FC32
:1036000000B1FEE70F2304904FF4A0500721CDE94D
:1036100002344FF48053CDE9050302A801F0E8FE1F
:1036200000B1FEE741F648031B90249013936423F6
:1036300018930523CDE91D50CDE9290013A8CDE944
:10364000194300F0B9FF00B1FEE735B030BD00BF4F
:10365000003802400070004080B59AB0102200216E
:1036600001260DA8B14D12F0A8F84FF0404402F029
:10367000C1FC4FF0005CAE4B0DA81C27ADF83460C8
:103680001095CDE90EC302F0D7FC40F201130DA84E
:103690001096ADF83430CDE90E4702F0CDFC40F283
:1036A00001230DA80E94ADF834304FF01044A14B17
:1036B000CDE90F3502F0C0FC40F201330DA81096A1
:1036C000ADF83430CDE90E4702F0B6FC40F20143CC
:1036D0000DA80E94ADF83430974BCDE90F3502F0BC
:1036E000ABFC40F20153DFF878E20DA8ADF83430BE
:1036F000924B0E94CDE90FE302F09EFC042002F001
:1037000089FCBFF34F8FBFF36F8F8D4B0021C3F840
:103710005012BFF34F8FBFF36F8F5A6942F40032DC
:103720005A61BFF34F8FBFF36F8FC3F88410BFF39D
:103730004F8FD3F8802043F6E076C2F3C904C2F37A
:103740004E32A507520102EA060C2846214640EAFD
:103750000C07013900F14040C3F860724F1CF6D1EC
:10376000203A12F1200FEED1BFF34F8F5A6942F485
:1037700080325A61BFF34F8FBFF36F8F714C00F0EF
:10378000B5FCFFF7FFFE142200210DA812F015F87A
:10379000236B0022082143F010036B48002501260B
:1037A0002363236B03F010030293029B236B43F00C
:1037B00040032363236B03F040030393039B236BBA
:1037C00043F002032363236B03F002030493049B7F
:1037D000236B43F400732363236B03F4007305939B
:1037E000059B236B43F008032363236B03F008035B
:1037F0000693069B236B43F480632363236B03F4DC
:1038000080630793079B236B43F020032363236BA1
:1038100003F020030893089B236B43F48073236316
:10382000236B03F480730993099B236B43F001031B
:103830002363236B03F001030A930A9B236B43F07A
:1038400080032363236B03F080030B930B9B236B99
:1038500043F004032363236B03F004030C930C9BDA
:1038600002F02EFE00224FF48051384802F028FE6C
:1038700008230DA93448CDE90D36CDE90F5502F0E6
:10388000A3FC4FF480530DA93048CDE90D36CDE9A6
:103890000F5502F099FC236B2A46052143F480035F
:1038A0000E202363236B03F480030093009B236BA0
:1038B00043F400132363236B03F400130193019B70
:1038C00002F044FB0E2002F073FB2A46052139204A
:1038D00002F03CFB392002F06BFB2A4605213A201E
:1038E00002F034FB3A2002F063FB1948194B858043
:1038F00003600662C0E9055501F002F900B1FEE778
:10390000154C164BC4E90260C4E90030C4E90A064C
:10391000C4E90C00204602F022FE00B1FEE7314669
:10392000204602F0B5FFE8B1FEE700BF010001014B
:10393000120000031600000317000003000001013D
:1039400000ED00E000380240002802400020024064
:1039500098A400200030024028A7002000B00240B8
:10396000130000035C4B04215C4A40249860C3E9C7
:1039700000201022C3E9031280211392C3E90541FC
:10398000C3E90700C3E909000DA91846CDE90D22D6
:10399000CDE90F22CDE9112201F0F0FA00B1FEE7E6
:1039A00004F0DEFF04F08EFF054600B1FEE734228E
:1039B00001464B4C28270DEB020011F0FEFE494B4F
:1039C0004FF0350C40F2152E40F235222561A586C8
:1039D000204684F83650C4E900350923C4E905734C
:1039E0000B23C4E907C340F21B13C4E909E340F207
:1039F0001D13C4E90255C4E90B2301F061F9024625
:103A000000B1FEE74FF4F0710D904FF480654FF474
:103A10008873ADF8642018938DF86620CDE90E10F8
:103A2000FF20CDE912020520CDE91621CDE9145081
